:020000020000FC
:040000000C947E12CC
:040038000C943A00EA
:04002C000C94F3003D
:1000680056657273696F6E20302E301A0F931F9386
:100078002F937FB61091300312FF14C00091200314
:100088000A950093200371F40AE00093200300917D
:1000980010030A950093100329F4E89410F912F953
:1000A800109330031091300316FF14C00091210300
:1000B8000A950093210371F40AE00093210300914B
:1000C80011030A950093110329F4E89414F916F919
:1000D800109330031091310312FF14C000912203D2
:1000E8000A950093220371F40AE000932203009119
:1000F80012030A950093120329F4E89410F912F9EF
:10010800109331031091310316FF14C0009123039B
:100118000A950093230371F40AE0009323030091E6
:1001280013030A950093130329F4E89414F916F9B4
:1001380010933103906100915103199B00950F733F
:10014800000F000F19B11370012B0BB90091510367
:10015800199B07C02D9A07FF2D982C9A06FF2C98FB
:1001680006C02D9807FF2D9A2C9806FF2C9A26B1C9
:100178002F731091550320935503122710935A0398
:100188001095122310935B0310914F0300915A03AB
:10019800102300915B03102B00914F0300935B0326
:1001A80010934F03122F109500915A0310230091BA
:1001B8005703012B00935703122F00915A03102362
:1001C80000915603012B10935603009158031027F2
:1001D800109358037FBE2F911F910F9118950F937D
:1001E8001F937FB6816098608A9421F402E0802E84
:1001F80011E091279A9429F406E0902E826012E08B
:100208009127AA9429F402E1A02E846014E0912792
:1002180080FF54C11091300312FF14C000912003D5
:100228000A950093200371F40AE0009320030091DB
:1002380010030A950093100329F4E89410F912F9B1
:10024800109330031091300316FF14C0009121035E
:100258000A950093210371F40AE0009321030091A9
:1002680011030A950093110329F4E89414F916F977
:10027800109330031091310312FF14C00091220330
:100288000A950093220371F40AE000932203009177
:1002980012030A950093120329F4E89410F912F94D
:1002A800109331031091310316FF14C000912303FA
:1002B8000A950093230371F40AE000932303009145
:1002C80013030A950093130329F4E89414F916F913
:1002D800109331031091320312FF14C000912403CC
:1002E8000A950093240371F40AE000932403009113
:1002F80014030A950093140329F4E89410F912F9E9
:10030800109332031091320316FF14C00091250395
:100318000A950093250371F40AE0009325030091E0
:1003280015030A950093150329F4E89414F916F9AE
:10033800109332031091330312FF14C00091260367
:100348000A950093260371F40AE0009326030091AE
:1003580016030A950093160329F4E89410F912F984
:10036800109333031091330316FF14C00091270331
:100378000A950093270371F40AE00093270300917C
:1003880017030A950093170329F4E89414F916F94A
:10039800109333031091350312FF14C000912A0300
:1003A8000A9500932A0371F40AE000932A03009146
:1003B8001A030A9500931A0329F4E89410F912F91C
:1003C800109335031091350316FF14C000912B03C9
:1003D8000A9500932B0371F40AE000932B03009114
:1003E8001B030A9500931B0329F4E89414F916F9E2
:1003F8001093350381FF62C01091360312FF14C0B9
:1004080000912C030A9500932C0371F404E60093E1
:100418002C0300911C030A9500931C0329F4E8940B
:1004280010F912F9109336031091360316FF14C011
:1004380000912D030A9500932D0371F404E60093AF
:100448002D0300911D030A9500931D0329F4E894D8
:1004580014F916F9109336031091370312FF14C0DC
:1004680000912E030A9500932E0371F404E600937D
:100478002E0300911E030A9500931E0329F4E894A5
:1004880010F912F91093370382FF18C0109137033F
:1004980016FF14C000912F030A9500932F0371F4DF
:1004A8000EED00932F0300911F030A9500931F037D
:1004B80029F4E89414F916F910933703887F7FBE5E
:1004C8001F910F9118950E946F140E947714882726
:1004D8009927289A299A249A259A0FE308B90CEFA4
:1004E8000AB905E005BD02E004BD00E407BD0091BE
:1004F8006E00026000936E000CE00093810008E13A
:100508001AE6009389001093880000916F0002603A
:1005180000936F0002E0802E06E0902E8D7F02E1AE
:10052800A02E8B7F0895F89400E00093C50003E3A4
:100538000093C40006E00093C20008E10093C100E4
:100548007894089501E0402E00E0502E0027009393
:1005580040030093410300934903089544524F50C8
:100568000017BA020000FBFF66940895434C521727
:10057800C3020000FCFF66948894660C08954455F5
:100588005017D2020000FCFF669420F4661C089401
:10059800661C0895661C8894661C08955345541774
:1005A800DB020000FCFF66940894661C08954F5215
:1005B8000017E8020000FCFF062D06950629669440
:1005C80066940695661C0895414E4417F50200008E
:1005D800FCFF062D06950621669466940695661C12
:1005E8000895211701030000FDFF669418F488940C
:1005F800661C08950894661C0895212100170903B4
:100608000000FCFF0F6F60260895584F521716031D
:100618000000FCFF062D069506256694669406954F
:10062800661C089550412E171E030000FCFF6090C1
:100638004F03089550552E1726030000FCFF6090C5
:100648005303089550562E172E030000FCFF6090A8
:100658005403089550592E1736030000FCFF60908C
:10066800510308952E5041173E030000FCFF60928D
:100678004F0308952E50551746030000FCFF609263
:10068800530308952E5056174E030000FCFF609246
:10069800540308952E50591756030000FCFF60922A
:1006A80051030895434C4B412E1762030000FBFF92
:1006B80090FB08940EF08894661C0895434C4B42B6
:1006C8002E176E030000FBFF91FB08940EF0889430
:1006D800661C0895434C4B432E177A030000FBFF1A
:1006E80092FB08940EF08894661C089541302E17EA
:1006F80087030000FCFF00914F0300FB08940EF0F5
:100708008894661C089541312E1794030000FCFF5D
:1007180000914F0301FB08940EF08894661C08951D
:1007280041322E17A1030000FCFF00914F0302FB8A
:1007380008940EF08894661C089541332E17AE0372
:100748000000FCFF00914F0303FB08940EF088940F
:10075800661C089541342E17BB030000FCFF00916E
:100768004F0304FB08940EF08894661C08954135E5
:100778002E17C8030000FCFF00914F0305FB0894E7
:100788000EF08894661C089541362E17D503000094
:10079800FCFF00914F0306FB08940EF08894661C3A
:1007A800089541372E17E2030000FCFF00914F0324
:1007B80007FB08940EF08894661C0895414C302E6F
:1007C8000017FE030000FBFF00916E000E7F0093F0
:1007D8006E000091560300FB08940EF08894661C86
:1007E800E89400F90093560300916E0001600093AD
:1007F8006E000895414C312E00171A040000FBFFCB
:1008080000916E000E7F00936E000091560301FB6D
:1008180008940EF08894661CE89401F90093560336
:1008280000916E00016000936E000895414C322ED5
:10083800001736040000FBFF00916E000E7F009346
:100848006E000091560302FB08940EF08894661C13
:10085800E89402F90093560300916E00016000933A
:100868006E000895414C332E001752040000FBFF20
:1008780000916E000E7F00936E000091560303FBFB
:1008880008940EF08894661CE89403F900935603C4
:1008980000916E00016000936E000895414C342E63
:1008A80000176E040000FBFF00916E000E7F00939E
:1008B8006E000091560304FB08940EF08894661CA1
:1008C800E89404F90093560300916E0001600093C8
:1008D8006E000895414C352E00178A040000FBFF76
:1008E80000916E000E7F00936E000091560305FB89
:1008F80008940EF08894661CE89405F90093560352
:1009080000916E00016000936E000895414C362EF0
:100918000017A6040000FBFF00916E000E7F0093F5
:100928006E000091560306FB08940EF08894661C2E
:10093800E89406F90093560300916E000160009355
:100948006E000895414C372E0017C2040000FBFFCB
:1009580000916E000E7F00936E000091560307FB16
:1009680008940EF08894661CE89407F900935603DF
:1009780000916E00016000936E0008954154302E7E
:100988000017DE040000FBFF00916E000E7F00934D
:100998006E000091570300FB08940EF08894661CC3
:1009A800E89400F90093570300916E0001600093EA
:1009B8006E0008954154312E0017FA040000FBFF21
:1009C80000916E000E7F00936E000091570301FBAB
:1009D80008940EF08894661CE89401F90093570374
:1009E80000916E00016000936E0008954154322E0C
:1009F800001716050000FBFF00916E000E7F0093A4
:100A08006E000091570302FB08940EF08894661C50
:100A1800E89402F90093570300916E000160009377
:100A28006E0008954154332E001732050000FBFF75
:100A380000916E000E7F00936E000091570303FB38
:100A480008940EF08894661CE89403F90093570301
:100A580000916E00016000936E0008954154342E99
:100A680000174E050000FBFF00916E000E7F0093FB
:100A78006E000091570304FB08940EF08894661CDE
:100A8800E89404F90093570300916E000160009305
:100A98006E0008954154352E00176A050000FBFFCB
:100AA80000916E000E7F00936E000091570305FBC6
:100AB80008940EF08894661CE89405F9009357038F
:100AC80000916E00016000936E0008954154362E27
:100AD800001786050000FBFF00916E000E7F009353
:100AE8006E000091570306FB08940EF08894661C6C
:100AF800E89406F90093570300916E000160009393
:100B08006E0008954154372E0017A2050000FBFF20
:100B180000916E000E7F00936E000091570307FB53
:100B280008940EF08894661CE89407F9009357031C
:100B380000916E00016000936E0008954144302ECC
:100B48000017B0050000FBFF0091580300FB089454
:100B58000EF08894661C08954144312E0017BE0596
:100B68000000FBFF0091580301FB08940EF08894E5
:100B7800661C08954144322E0017CC050000FBFF87
:100B88000091580302FB08940EF08894661C08959F
:100B98004144332E0017DA050000FBFF009158038B
:100BA80003FB08940EF08894661C08954144342E83
:100BB8000017E8050000FBFF0091580304FB0894A8
:100BC8000EF08894661C08954144352E0017F605EA
:100BD8000000FBFF0091580305FB08940EF0889471
:100BE800661C08954144362E001704060000FBFFDA
:100BF8000091580306FB08940EF08894661C08952B
:100C08004144372E001712060000FBFF00915803DD
:100C180007FB08940EF08894661C089555302E172B
:100C28001F060000FCFF0091530300FB08940EF020
:100C38008894661C089555312E172C060000FCFF79
:100C48000091530301FB08940EF08894661C0895E4
:100C580055322E1739060000FCFF0091530302FBA2
:100C680008940EF08894661C089555332E1746068E
:100C78000000FCFF0091530303FB08940EF08894D6
:100C8800661C089555342E1753060000FCFF00918A
:100C9800530304FB08940EF08894661C0895553598
:100CA8002E1760060000FCFF0091530305FB089413
:100CB8000EF08894661C089555362E176D060000B0
:100CC800FCFF0091530306FB08940EF08894661C01
:100CD800089555372E177A060000FCFF009153033C
:100CE80007FB08940EF08894661C08952E5530175B
:100CF80089060000FCFF6694E89408F46894009163
:100D0800530300F90093530308952E55311798069D
:100D18000000FCFF6694E89408F46894009153037B
:100D280001F90093530308952E553217A7060000C2
:100D3800FCFF6694E89408F468940091530302F960
:100D48000093530308952E553317B6060000FCFF91
:100D58006694E89408F468940091530303F90093A7
:100D6800530308952E553417C5060000FCFF6694FA
:100D7800E89408F468940091530304F9009353032A
:100D880008952E553517D4060000FCFF6694E894A4
:100D980008F468940091530305F9009353030895E8
:100DA8002E553617E3060000FCFF6694E89408F415
:100DB80068940091530306F90093530308952E5540
:100DC8003717F2060000FCFF6694E89408F468946C
:100DD8000091530307F900935303089556302E17D3
:100DE800FF060000FCFF0091540300FB08940EF07E
:100DF8008894661C089556312E170C070000FCFFD6
:100E08000091540301FB08940EF08894661C089521
:100E180056322E1719070000FCFF0091540302FBFD
:100E280008940EF08894661C089556332E172607EA
:100E38000000FCFF0091540303FB08940EF0889413
:100E4800661C089556342E1733070000FCFF0091E6
:100E5800540304FB08940EF08894661C08955635D4
:100E68002E1740070000FCFF0091540305FB08946F
:100E78000EF08894661C089556362E174D0700000C
:100E8800FCFF0091540306FB08940EF08894661C3E
:100E9800089556372E175A070000FCFF0091540397
:100EA80007FB08940EF08894661C08952E56301798
:100EB80069070000FCFF6694E89408F468940091C0
:100EC800540300F90093540308952E5631177807F8
:100ED8000000FCFF6694E89408F4689400915403B9
:100EE80001F90093540308952E563217870700001E
:100EF800FCFF6694E89408F468940091540302F99E
:100F08000093540308952E56331796070000FCFFEC
:100F18006694E89408F468940091540303F90093E4
:100F2800540308952E563417A5070000FCFF669455
:100F3800E89408F468940091540304F90093540366
:100F480008952E563517B4070000FCFF6694E89400
:100F580008F468940091540305F900935403089524
:100F68002E563617C3070000FCFF6694E89408F471
:100F780068940091540306F90093540308952E567B
:100F88003717D2070000FCFF6694E89408F46894C9
:100F98000091540307F90093540308952E5930170C
:100FA800E1070000FCFF6694E89408F46894009157
:100FB800510300F90093510308952E593117F00792
:100FC8000000FCFF6694E89408F4689400915103CB
:100FD80001F90093510308952E593217FF070000B5
:100FE800FCFF6694E89408F468940091510302F9B0
:100FF8000093510308952E5933170E080000FCFF83
:101008006694E89408F468940091510303F90093F6
:10101800510308952E5934171D080000FCFF6694EB
:10102800E89408F468940091510304F9009351037B
:1010380008952E5935172C080000FCFF6694E89493
:1010480008F468940091510305F900935103089539
:101058002E5936173B080000FCFF6694E89408F404
:1010680068940091510306F90093510308952E598D
:1010780037174A080000FCFF6694E89408F468945F
:101088000091510307F900935103089551302E1729
:1010980057080000FCFF00915E0300FB08940EF067
:1010A8008894661C089551312E1764080000FCFFCF
:1010B80000915E0301FB08940EF08894661C089565
:1010C80051322E1771080000FCFF00915E0302FBED
:1010D80008940EF08894661C089551332E177E08E4
:1010E8000000FCFF00915E0303FB08940EF0889457
:1010F800661C089551342E178B080000FCFF0091E0
:101108005E0304FB08940EF08894661C089551351C
:101118002E1798080000FCFF00915E0305FB089459
:101128000EF08894661C089551362E17A508000005
:10113800FCFF00915E0306FB08940EF08894661C81
:10114800089551372E17B2080000FCFF00915E0386
:1011580007FB08940EF08894661C08952E533017E8
:10116800C1080000FCFF6694E89408F468940091B4
:101178005C0300F900935C0308952E533117D008DF
:101188000000FCFF6694E89408F4689400915C03FE
:1011980001F900935C0308952E533217DF0800000D
:1011A800FCFF6694E89408F4689400915C0302F9E3
:1011B80000935C0308952E533317EE080000FCFFDC
:1011C8006694E89408F4689400915C0303F900932A
:1011D8005C0308952E533417FD080000FCFF669445
:1011E800E89408F4689400915C0304F900935C03A4
:1011F80008952E5335170C090000FCFF6694E894F7
:1012080008F4689400915C0305F900935C03089561
:101218002E5336171B090000FCFF6694E89408F467
:10122800689400915C0306F900935C0308952E53BB
:1012380037172A090000FCFF6694E89408F46894BC
:1012480000915C0307F900935C0308952E52301750
:1012580039090000FCFF6694E89408F4689400914A
:101268005D0300F900935D0308952E523117480974
:101278000000FCFF6694E89408F4689400915D030C
:1012880001F900935D0308952E52321757090000A3
:10129800FCFF6694E89408F4689400915D0302F9F1
:1012A80000935D0308952E52331766090000FCFF72
:1012B8006694E89408F4689400915D0303F9009338
:1012C8005D0308952E52341775090000FCFF6694DB
:1012D800E89408F4689400915D0304F900935D03B1
:1012E80008952E52351784090000FCFF6694E8948F
:1012F80008F4689400915D0305F900935D0308956F
:101308002E52361793090000FCFF6694E89408F4FF
:10131800689400915D0306F900935D0308952E52C9
:101328003717A2090000FCFF6694E89408F4689453
:1013380000915D0307F900935D03089551382E1756
:10134800AF090000FCFF0091610300FB08940EF058
:101358008894661C089551392E17BC090000FCFFBB
:101368000091610301FB08940EF08894661C0895AF
:1013780051412E17C9090000FCFF0091610302FBCF
:1013880008940EF08894661C089551422E17D609C9
:101398000000FCFF0091610303FB08940EF08894A1
:1013A800661C089551432E17E3090000FCFF0091C5
:1013B800610304FB08940EF08894661C0895514458
:1013C8002E17F0090000FCFF0091610305FB08944B
:1013D8000EF08894661C089551452E17FD090000EB
:1013E800FCFF0091610306FB08940EF08894661CCC
:1013F800089551462E170A0A0000FCFF0091610368
:1014080007FB08940EF08894661C08952E5338172D
:10141800190A0000FCFF6694E89408F468940091A7
:101428005F0300F900935F0308952E533917280AC4
:101438000000FCFF6694E89408F4689400915F0348
:1014480001F900935F0308952E534117370A0000EE
:10145800FCFF6694E89408F4689400915F0302F92D
:1014680000935F0308952E534217460A0000FCFFBD
:101478006694E89408F4689400915F0303F9009374
:101488005F0308952E534317550A0000FCFF669426
:10149800E89408F4689400915F0304F900935F03EB
:1014A80008952E534417640A0000FCFF6694E894DC
:1014B80008F4689400915F0305F900935F030895A9
:1014C8002E534517730A0000FCFF6694E89408F44D
:1014D800689400915F0306F900935F0308952E5303
:1014E8004617820A0000FCFF6694E89408F46894A2
:1014F80000915F0307F900935F0308952E52381790
:10150800910A0000FCFF6694E89408F4689400913E
:10151800600300F90093600308952E523917A00A5A
:101528000000FCFF6694E89408F468940091600356
:1015380001F90093600308952E524117AF0A000085
:10154800FCFF6694E89408F468940091600302F93B
:101558000093600308952E524217BE0A0000FCFF54
:101568006694E89408F468940091600303F9009382
:10157800600308952E524317CD0A0000FCFF6694BD
:10158800E89408F468940091600304F900936003F8
:1015980008952E524417DC0A0000FCFF6694E89474
:1015A80008F468940091600305F9009360030895B6
:1015B8002E524517EB0A0000FCFF6694E89408F4E5
:1015C80068940091600306F90093600308952E5211
:1015D8004617FA0A0000FCFF6694E89408F4689439
:1015E8000091600307F90093600308955451302E69
:1015F8000017080B0000FBFF0091300300FB089464
:101608000EF08894661C08955451312E0017160B5D
:101618000000FBFF0091300304FB08940EF088944F
:10162800661C08955451322E0017240B0000FBFF4E
:101638000091310300FB08940EF08894661C08950D
:101648005451332E0017320B0000FBFF0091310379
:1016580004FB08940EF08894661C08955451342EA7
:101668000017400B0000FBFF0091320300FB0894B9
:101678000EF08894661C08955451352E00174E0BB1
:101688000000FBFF0091320304FB08940EF08894DD
:10169800661C08955451362E00175C0B0000FBFFA2
:1016A8000091330300FB08940EF08894661C08959B
:1016B8005451372E00176A0B0000FBFF00913303CB
:1016C80004FB08940EF08894661C08955451382E33
:1016D8000017780B0000FBFF0091340300FB08940F
:1016E8000EF08894661C08955451392E0017860B05
:1016F8000000FBFF0091340304FB08940EF088946B
:10170800661C08955451412E0017940B0000FBFFEE
:101718000091350300FB08940EF08894661C089528
:101728005451422E0017A20B0000FBFF0091350315
:1017380004FB08940EF08894661C08955451432EB7
:101748000017B00B0000FBFF0091360300FB089464
:101758000EF08894661C08955451442E0017BE0B51
:101768000000FBFF0091360304FB08940EF08894F8
:10177800661C08955451452E0017CC0B0000FBFF42
:101788000091370300FB08940EF08894661C0895B6
:101798005451462E0017DA0B0000FBFF0091370367
:1017A80004FB08940EF08894661C08952E54523059
:1017B8000017EB0B0000FBFF669408F008950091FA
:1017C8003003E89400F902F90093300308952E5489
:1017D80052310017FC0B0000FBFF669408F00895D7
:1017E80000913003E89404F906F900933003089552
:1017F8002E54523200170D0C0000FBFF669408F0BF
:10180800089500913103E89400F902F90093310337
:1018180008952E54523300171E0C0000FBFF6694E7
:1018280008F0089500913103E89404F906F900934B
:10183800310308952E54523400172F0C0000FBFF7B
:10184800669408F0089500913203E89400F902F9CB
:101858000093320308952E5452350017400C0000AF
:10186800FBFF669408F0089500913203E89404F9A8
:1018780006F90093320308952E5452360017510C7E
:101888000000FBFF669408F0089500913303E89484
:1018980000F902F90093330308952E5452370017C4
:1018A800620C0000FBFF669408F008950091330372
:1018B800E89404F906F90093330308952E54523836
:1018C8000017730C0000FBFF669408F00895009160
:1018D8003403E89400F902F90093340308952E5470
:1018E80052390017840C0000FBFF669408F0089535
:1018F80000913403E89404F906F900933403089539
:101908002E5452410017950C0000FBFF669408F016
:10191800089500913503E89400F902F9009335031E
:1019280008952E5452420017A60C0000FBFF66943F
:1019380008F0089500913503E89404F906F9009336
:10194800350308952E5452430017B70C0000FBFFCF
:10195800669408F0089500913603E89400F902F9B6
:101968000093360308952E5452440017C80C000003
:10197800FBFF669408F0089500913603E89404F993
:1019880006F90093360308952E5452450017D90CD2
:101998000000FBFF669408F0089500913703E8946F
:1019A80000F902F90093370308952E5452460017A0
:1019B800EA0C0000FBFF669408F0089500913703D5
:1019C800E89404F906F90093370308952E544B3030
:1019D8000017050D0000FBFF669490F400910003CA
:1019E800002371F009E100932003009100030093A4
:1019F800100300913003689400F902F90093300352
:101A080008952E544B310017200D0000FBFF6694FB
:101A180090F400910103002371F009E10093210380
:101A2800009101030093110300913003689404F9B5
:101A380006F90093300308952E544B3200173B0DDE
:101A48000000FBFF669490F400910203002371F0FC
:101A580009E100932203009102030093120300910D
:101A68003103689400F902F90093310308952E5464
:101A78004B330017560D0000FBFF669490F400915D
:101A88000303002371F009E100932303009103038A
:101A98000093130300913103689404F906F9009345
:101AA800310308952E544B340017710D0000FBFFCD
:101AB800669490F400910403002371F00AE0009307
:101AC80024030091040300931403009132036894E3
:101AD80000F902F90093320308952E544B3500178C
:101AE8008C0D0000FBFF669490F400910503002321
:101AF80071F00AE000932503009105030093150394
:101B080000913203689404F906F9009332030895AA
:101B18002E544B360017A70D0000FBFF669490F477
:101B280000910603002371F00AE000932603009158
:101B380006030093160300913303689400F902F931
:101B48000093330308952E544B370017C20D00003D
:101B5800FBFF669490F400910703002371F00AE0FC
:101B680000932703009107030093170300913303A1
:101B7800689404F906F90093330308952E544B38FA
:101B88000017DD0D0000FBFF669490F40091080338
:101B9800002371F00AE000932803009108030093E2
:101BA800180300913403689400F902F90093340390
:101BB80008952E544B390017F80D0000FBFF66946A
:101BC80090F400910903002371F00AE000932903BF
:101BD800009109030093190300913403689404F9F0
:101BE80006F90093340308952E544B410017130E41
:101BF8000000FBFF669490F400910A03002371F043
:101C08000AE000932A0300910A0300931A03009143
:101C18003503689400F902F90093350308952E54AA
:101C28004B4200172E0E0000FBFF669490F40091C3
:101C38000B03002371F00AE000932B0300910B03C0
:101C480000931B0300913503689404F906F9009387
:101C5800350308952E544B430017490E0000FBFF2F
:101C6800669490F400910C03002371F004E600934D
:101C78002C0300910C0300931C0300913603689415
:101C880000F902F90093360308952E544B440017C7
:101C9800640E0000FBFF669490F400910D0300238E
:101CA80071F004E600932D0300910D0300931D03CA
:101CB80000913603689404F906F9009336030895F1
:101CC8002E544B4500177F0E0000FBFF669490F4DE
:101CD80000910E03002371F004E600932E03009197
:101CE8000E0300931E0300913703689400F902F96C
:101CF8000093370308952E544B4600179A0E0000A0
:101D0800FBFF669490F400910F03002371F00EED31
:101D180000932F0300910F0300931F0300913703D3
:101D2800689404F906F9009337030895462E0017BE
:101D3800A20E0000FCFF0FEF602E08955A2E001728
:101D4800A90E0000FCFF6624089550504117B70EF5
:101D58000000FCFF93FF0895977FB8D706392091BC
:101D68004F0351D0089550505517C50E0000FCFF81
:101D780093FF0895977FAAD706392091530343D03C
:101D8800089550505617D30E0000FCFF93FF089596
:101D9800977F9CD706392091540335D00895505029
:101DA8005917E10E0000FCFF93FF0895977F8ED727
:101DB80006392091510327D008954E4F5017E70E4A
:101DC8000000FCFF089546494C4C0017FF0E010027
:101DD800FBFF70E0D1E0C0E0D0934203C09343031F
:101DE800B1E0A0E0FEE0E6EE1BD57A95E9F70E94A7
:101DF800A60261D4089550425317110F0000FCFF4A
:101E080065D70608262D78E0221FFDD611E308F0D5
:101E180010E3E7D67A95C1F708954B455917250F72
:101E28000000FCFFCED6112309F408951F3209F0F3
:101E3800089558D6F89408E00EBF0FEF0DBF7894B8
:101E480065C352554E17420F01000000B8D3F3E2A4
:101E5800E4E9F695E795E4D4FED5F3E3EEE6E9D6B2
:101E6800F89408E00EBF0FEF0DBF7894B42DA52DA0
:101E7800FD91ED914B2E5A2E0995F8CF4558301704
:101E8800490F010000001DD0E7CF3F17550F010093
:101E98000000E7D5FFE2EEE6CCD624D6E2D50BD497
:101EA80008952F17600F01000000F89408E00EBF96
:101EB8000FEF0DBF78942AC3554630176E0F0100F7
:101EC80000000E94A60202D71802CBD6F3E3E6EA86
:101ED800B0D60895494E5317920F010000006FD3F2
:101EE800B0914203A0914303D2E0CFE5CA1BDB0BBC
:101EF800D695C7952C2EDD91CD91FD91EC910FEFE4
:101F0800A00F0FEFB01FDD93CD93DF2FCE2F2A94B4
:101F1800A1F7FEE0E6EE84D4CED3089544454C17ED
:101F2800B20F010000004BD3B0914203A0914303CC
:101F3800D2E0CFE5CA1BDB0BD695C7952C2EDB2F3D
:101F4800CA2F2296F991E991FD93ED932A94D1F73E
:101F5800FEE0E6EEFD93ED93AED308955645521795
:101F6800BF0F0100FCFF0E942F15F0E0E8E60E9479
:101F78001D168068089553544F524517DE0F01000F
:101F8800FBFF69D5F3E3E4EF54D60FEF01BD02BDC3
:101F980002E0B02F00E1A02FF1E0E0E00191EBD6E4
:101FA80011E0A11B1127B10BBB23C1F7AA23B1F77D
:101FB80099D508954C4F41440017FB0F0100FBFFD2
:101FC8000FEF01BD02BD02E0B02F00E1A02FF1E04C
:101FD800E0E0DED6019311E0A11B1127B10BBB2372
:101FE800C1F7AA23B1F70E94A60265D308954C440D
:101FF80054176E100100FCFF2ED5F4E3E6E119D664
:10200800009148030F930027009348030E94351559
:102018000E9450120E946D120027009348030E94EC
:102028000C1223D20E9451150E941F1485FF1AC05A
:102038000E94EE151B35B1F70E94EE15133421F4FA
:102048001BD2D4D112D2EECF143421F415D2D7D169
:102058000CD2E8CF113409F4E5CF123409F4E2CFF9
:10206800B9D5E0CFB3E0A8E31C910E94BD141A359E
:1020780021F438D2CDD1F9D1D5CF0E945C141123E7
:10208800D1F00E94C41483FF0DC0877F87FF03C06F
:102098008F770E946D120E949714F1D1C7D1A6D1F3
:1020A800E4D1C0CF0E946A16182DF3E3E8EC0E9431
:1020B8001D168068B7CF0E946A1616060E9435164C
:1020C8000F91009348030E9435150E945F130E94E8
:1020D8005B150895524541440017EB100100FBFFC2
:1020E8000E9435150E946A160919F3E2E0E30E947E
:1020F8001D160E942B150E94BF101F3219F40E9452
:10210800E01034C01A33B9F70E94C610E0F4CC23AB
:10211800F9F04C2F3C2F0E94C410A8F4DE013D0FAB
:102128003C0F0E94C61078F4CC2391F40E94C6108C
:1021380050F4CD933C0F4A95C9F70E94C61018F485
:102148003C0F3323C1F20E94E010F3E2E8E604C03A
:102158000E94E010F3E2E2E50E941D16F3E2E8E7D0
:102168000E941D160E94EE151F32E1F7AAD49FD4D3
:10217800A8DEA1D208950E94E5151123E1F3089580
:1021880074E001C072E0DD27CC270E94BF100E94D6
:102198001C1540F41F930E94D7101F91C12B7A95EC
:1021A800A1F7089408954F9344E08894CC1FDD1F4D
:1021B8004A95E1F74F910895977F93FFFDCF977F59
:1021C8000E94E515112311F093FFFACF0895575295
:1021D80049544517C5110100FBFF0E9435150E949F
:1021E8006A160911F2E2E6ED0E941D160E942B15EF
:1021F800F3E2E6E00E941D160E946A160B010E9497
:10220800EE151D3019F01F32D1F734C0B1E0A0E04F
:10221800D2E0C0E1889444E02227D795C795279556
:102228004A95D9F72295DD2311F4CC2331F00E9489
:1022380043110E9454112197D1F7222341F01AE348
:102248000E94F515422F0E9447110E9454111AE36B
:102258000E94F51543E011270E94BF154A95D9F74A
:1022680011E00E94BF1531E00E945C110E94EE153A
:102278001F32E1F726D40E945B151DD208951AE398
:102288000E94F51540E1142F0E94BF153327340F23
:102298003A0F3B0F0E94641111270E94BF15089541
:1022A8001D911F930E94BF151F91310F4A95C1F7C9
:1022B80030953395132F0E94BF150E94FD15089580
:1022C8001B2F0E94BF151A2F0E94BF15089546693B
:1022D8006C65207772697465202E2E2E2E20274378
:1022E800522720746F2073656E64202E2E2E2E20A8
:1022F800272F2720746F2061626F72741A002A2AB0
:102308002A2053746172742F656E6420686F737429
:10231800207472616E736665722070726F63656493
:10232800757265202A2A2A1A52656164696E6720C7
:1023380066696C65202E2E2E2E2E2E20272F272004
:10234800746F2061626F72741A0046696C6520723E
:1023580065616420636F6D706C65746564202D1A07
:1023680052656164206572726F7221202D201A00F7
:1023780020272F2720666F72206D656E75202D2D02
:102388003E1A454E4417E9110000FCFF01E0402EBB
:1023980000E0502E10915E0300915C03102B109307
:1023A8005E0300915D030095012300935E03109185
:1023B800610300915F03102B109361030091600388
:1023C800009501230093610308951A0018990C944D
:1023D800F9110FEF01BD02BDDBD40F3F31F00E94B0
:1023E800E40F0E94650F0C94300F08950091480384
:1023F8000395003109F400270093480308950091DC
:1024080048030A950F3F09F40FE000934803089525
:1024180070E10027009348037F9308D0E7DF7F919E
:102428007A95D1F70027009348030895B3E0A0E018
:10243800CFE0DBE0222410914803112361F007E08C
:10244800C00F11962394022D083019F4CFE005E04F
:10245800D00F1A95A1F70E9481161D91C12FDD2773
:102468000E94FE140E94AB1408950E9449160E940F
:102478001A120E94441608950E944416F8CFB3E039
:10248800A0E000914803002319F011960A95E9F796
:1024980000914E030D9308950E946A16090FF4E304
:1024A800E2E40E941D160E946A160A0FF4E3EAEAA3
:1024B8000E941D160E946A160E0FF4E3E6E70E94BA
:1024C8001D160E946A160F0FF4E3EAEA0E941D1611
:1024D80008950E942B15F4E3E6E10E941D160E9460
:1024E80035160895B3E0A0E020E100270D932A9562
:1024F800E9F7089508E00EBF0FEF0DBF0E94B01571
:102508000E9467020E9497020E94EA11DAD2D9DC7F
:10251800D2D076DC08D2C1D28ED185FF29C05AD359
:102528001B3599F457D3123411F471D0F4CF113408
:1025380011F47ED0F0CF133419F45CD0BCD0EBCFBB
:10254800143419F44AD0B7D0E6CF183411F47FD038
:10255800E2CF113319F43ED37AD0DDCF123319F418
:1025680039D3BDDCD8CF133319F434D3DCDCD3CF63
:1025780087FF02C08F779BD29BD1112361F22FD2A4
:1025880028F4FED183FF15C0877FC3CF022D063004
:1025980080F410D170F0FF93EF930995EF91FF91BC
:1025A8000ED000914603013009F4B3CF39D12FD0B2
:1025B800B0CF51D2F3E3E8EC3CD38068ACCF04D081
:1025C8005FD06CD001D00895009149031091480361
:1025D8000093480310934903089510914103103064
:1025E80029F000EE100F10934103089510EE109398
:1025F8004103089510914103103E29F000E2100FA5
:10260800109341030895112710934103089563D04F
:1026180000914903039500934903003239F40027D8
:10262800009349034DD0E6DF46D0089549D0089578
:1026380052D0009149030A95009349030F3F29F4AA
:102648000FE100934903C9DF36D03AD0089543D04B
:1026580010914E0320E26DD220934903112329F0F3
:102668001770C5E0110FCA95E9F7C12F0091410312
:10267800102721F0C09341031ED0089521D008955A
:10268800D0914003C091410300914803C00F002737
:10269800D01FD0934403C09345030895D0914403B9
:1026A800C0914503CC0FDD1FC50DD41DD093420347
:1026B800C093430308950E9473130E9464130895FE
:1026C8000E9449160E94E8120E9485130E9444162F
:1026D8000E94E81208950E944416F4CF089520E25B
:1026E8000027009348032F930CD0009148030395CB
:1026F800009348032F912A95B1F7002700934803C8
:1027080008950DD0BDDFCADF03D11DD018F42ED037
:1027180042D00895F3E3EEEE0E941D160895C8E036
:10272800D9E0109148031770D10F10914803187120
:1027380039F016951695169503E1C00F1A95E9F725
:102748000E9481160895D0914203C0914303F991E4
:10275800E99104E0E01B00E0F00BEE0FFF1FE160E1
:1027680004910731089409F088940895D0914203A0
:10277800C0914303F991E99101E0E01B00E0F00BFF
:10278800EE0FFF1F25911491F695E795E20FF11FC3
:10279800EE0FFF1F0895FF93EF93F3E3ECEB49D29D
:1027A800EF91FF9101D008951591173111F019D2C9
:1027B800FBCF0895F5E0E4E6B3E0A8E3222D1591F8
:1027C800312E103061F0173169F00AE1102711F449
:1027D800089408951D910E94BD14132561F0159168
:1027E8001731E9F715911F9315911F93FF91EF91F9
:1027F800EE0FFF1FE1CF2A9511F71491103009F45D
:1028080031961591173159F73296B3E0A6E4159130
:102818001D9315911D933296F695E7958894089522
:10282800D0914203C0914303F993E993D0934203B3
:10283800C093430308950E9463140E94EE151D304F
:1028480021F4B3E0A8E380610895183141F4222D02
:10285800222389F30E9416162A95E1F7ECCF183047
:1028680051F4222D222349F32A95222E0E9416166E
:1028780000E00E93E2CF193039F437E010E20E94FD
:1028880052143A95E1F7D9CF1B3111F480620895BB
:1028980038D086FF01C0089501D0CFCF222D28302F
:1028A80009F408952395222E1D930E94F515089585
:1028B8001D91103011F48894089508940895002704
:1028C800222428E0B3E0A8E30D932A95E9F7B3E0C2
:1028D800A8E38F7C089522E5B3E0A0E100270D93DB
:1028E8002A95E9F708950027602E00934F03009377
:1028F80053030093540300935103D02EE02EF02E7F
:1029080008958064103218F01F3708F48F7B0895FB
:10291800D0914403C09145030E94FE140E94AB1459
:102928000E9405160895D2D10627B3E0ACE4DD91E4
:10293800CC910E94FE140E94A21408951F2D13D05A
:102948001E2D0E94AF141D2D0E94AF1408951E2D38
:102958000E94B714F8CF312E12950E94B714132D88
:102968000E94B71408951F7000E3100F0E94F51518
:102978000895113620F01B3710F4889410420895FA
:10298800877F722D763068F40E94D61450F4B3E035
:10299800ACE4DD93CD93CC93DD2311F00FEF0C93D2
:1029A80088600895DD27CC27B3E0A8E31D910E9435
:1029B800F31468F4312E0E94821568F0332D222713
:1029C8000E94941540F07A9589F7089408958894A0
:1029D800DD27CC2708950894DFEFCFEF0895312E37
:1029E8000E94BD14105318F01A3008F40895889402
:1029F800132D08953FEFF32EF394C051D742E0F71B
:102A0800C05FD84D20EF205FC85ED340E0F7C851C3
:102A1800DC4FE32EE394C456D040E0F7CC59E22AC9
:102A280020EF205FCA50E8F7C65FD22EDC2A08954F
:102A3800312E9FDF105340F01A3028F017501A300B
:102A480018F0103108F40895132D889408950E9401
:102A58006A16180203C00E946A1618160E943516D4
:102A680008950E946A1608010E943F150F000E94EF
:102A78006A1608010895FF91EF91EE0FFF1FEE7F90
:102A880025913196F695E795EF93FF930E943516B9
:102A98000E9430162A95D1F708950E946A161606E4
:102AA8000E943516F3E3E6EE0E941D1608950E9473
:102AB8006A1618020E943516F3E3E6EA0E941D160C
:102AC80008950E9427160E946A160101FDE2ECEAA9
:102AD8000E941D160E946A161701FFE2ECE10E948F
:102AE8001D1608950E946A16183AF3E3E0E90E9459
:102AF8001D160E94EE150E942F1508950E9490152C
:102B080050F0DF932F91CF933F9106D020F004D05F
:102B180010F00E94941508958894CC1FDD1F089525
:102B2800C30FD21F08950F930FEFA00FB01F0F917F
:102B380008953F937F93331B79E0111F7A9521F411
:102B4800232F7F913F910895331F321B18F4320FC2
:102B58008894F3CF0894F1CFF894A89504B700703F
:102B680004BF0091600008610093600000E00093DA
:102B78006000789408951F93129501D01F911F70DB
:102B880070E3170F1A3310F077E0170F0E94F5154E
:102B9800089524E60E949D15112311F00E94E11565
:102BA8001AE01F932F931F912F910E949D150E9449
:102BB800E1151F932F931F912F9110630E94F51514
:102BC80008950091C00007FF03C01091C600089542
:102BD800112708950091C00007FFFCCF1091C6008F
:102BE80008950091C00005FFFCCF1093C60008951A
:102BF80000D01F931DE00E94F5151AE00E94F515FC
:102C08000AC00E9407161F9310E205C01F9319E01F
:102C180002C01F9317E00E94F5151F9108951F9396
:102C28001CE2F9CF1F930E943A160E9435161F9195
:102C380008951F9315911A3111F41F9108951030BA
:102C4800C9F3CFDFF7CFFF93EF93FDE2E4E20E94F1
:102C58001D16FDE2EEE21DC0FF93EF93FDE2ECE1ED
:102C680018C0FF93EF93FDE2E2E313C0FF93EF93E5
:102C7800FDE2E0E20EC0FF93EF93FDE2E6E309C058
:102C8800FF93EF93FDE2ECE304C0FF93EF93FDE2C3
:102C9800E0E4CFDFEF91FF910895FF93EF93FDE21A
:102CA800E6E4F7CFFF93EF93FDE2EAE4F2CFFF9378
:102CB800EF93FDE2ECE4EDCFFF93EF93FDE2E4E563
:102CC800E8CFFF93EF93FDE2E8E5E3CF0E945116CA
:102CD800FF91EF918894EE1FFF1F15910E94CD156B
:102CE8000E94561615910E94CD150E945B16889475
:102CF800F795E795EF93FF9308950E9451161D2FBE
:102D08000E94CD150E9456161C2F0E94CD150E94B8
:102D18005B1608951B5B421A1B5B441A1B5B481A1F
:102D28001B5B304A1A001B5B4A1A1B5B4B1A1B5B66
:102D3800316D1A001B5B6D1A1B5B376D1A001B5B2C
:102D48001A003B1A481A1B5B314D1A001B371A0030
:102D58001B381A00F999FECFD2BDC1BD00BDF89449
:102D6800FA9AF99A78940895F999FECFD2BDC1BD1F
:102D7800F89A00B50895F999FECFC1B5D2B5219654
:102D8800C1BDD2BD00BDF894FA9AF99A7894089515
:102D9800F999FECFC1B5D2B52196C1BDD2BDF89A79
:102DA80000B5089520202020202020202020202049
:102DB800202020202020203C3C3C3C20204E616EDE
:102DC8006F202D207520542049204C204520202D8F
:102DD800202041546D65676133323820203E3E3EE5
:102DE8003E0D0A002D2D2D2D2D2D2D2D2D2D2D2D6A
:102DF8002D2D2D2D2D2D2D2D2D2D2D2D2D2D2D2DFB
:102E08002D2D2D2D2D2D2D2D2D2D2D2D2D2D2D2DEA
:102E18002D2D2D2D2D2D2D2D2D2D2D2D2D2D2D2DDA
:102E28002D2D2D2D2D2D2D2D2D2D2D2D2D2D2D2DCA
:102E38002D2D2D2D0D0A202020202020202020207F
:102E48002042697420537461636B20202020202065
:102E5800202020202020202020202020202020206A
:102E6800202020202020202020202020202020205A
:102E78002020506F727420427974650D0A0020205A
:102E880020202020202037203620352034203320D1
:102E980032203120302020202020202020202020F7
:102EA8002020202044617461202020202020202020
:102EB80020202020202020372036203520342033A1
:102EC8002032203120300D0A2020202020202020F0
:102ED8003D3D3D3D3D3D3D3D3D3D3D3D3D3D3D2037
:102EE80020202020202020202020202020203D3DA0
:102EF8003D3D3D2020202020202020202020202073
:102F0800203D3D3D3D3D3D3D3D3D3D3D3D3D3D3D06
:102F18000D0A0A002D2D2D2D2D2D2D2D2D2D2D2D6C
:102F28002D2D2D2D2D2D2D2D2D2D2D2D2D2D2D2DC9
:102F38002D2D2D2D2D2D2D2D2D2D2D2D2D2D2D2DB9
:102F48002D2D2D2D2D2D2D2D2D2D2D2D2D2D2D2DA9
:102F58002D2D2D2D2D2D2D2D2D2D2D2D2D2D2D2D99
:102F68002D2D2D2D1A0020204C6F676963202020FD
:102F780042697420537461636B2020202020202034
:102F880020202020492F4F202D20436F6D6D616E2A
:102F98006473202020202020202020202020204969
:102FA8006E7465727072657465722020202020200E
:102FB80054696D6572730D0A20202D2D2D2D2D203D
:102FC80020202D2D2D2D2D2D2D2D2D202020202D77
:102FD8002D2D2D2D2D2D2D2D2D2D2D2D2D2D2D2D19
:102FE8002D2D2D2D2D2D2D2D2D202020202D2D2D3D
:102FF8002D2D2D2D2D2D2D2D2D2D2D2D2D2D2D2006
:1030080020202D2D2D2D2D2D0D0A202020616E64C0
:1030180020202020202020736574202020202020BC
:10302800202020496E3A202041692E20414C692EEB
:10303800204154692E204144692E20202020202040
:103048002066696C6C202065783020202072756EAF
:10305800202020202054516D2E0D0A002020206FA2
:10306800722020202020202020636C722020202025
:10307800202020204F75743A202E596E20202020C1
:103088002020202020202020202020202020202038
:10309800202020696E732020206B65792020206510
:1030A8006E64202020202E546B6D0D0A202020787D
:1030B8006F7220202020202020647570202020207E
:1030C800202020566972743A2020556E2E2C202E0E
:1030D800556E2C20566E2E2C202E566E2020202029
:1030E80020202064656C202020202F20202020769E
:1030F8006572202020202E54526D0D0A2020202099
:1031080021202020202020202064726F7020202081
:10311800202869203D20302E2E352C206E203D2081
:10312800302E2E372C206D203D20302E2E66292063
:10313800202020203F2020206C6F616420207374A1
:103148006F7265202020206C64740D0A2020206E88
:103158006F7020202020662E2C207A2E2C202121F2
:103168002020202020202020202020202020202057
:103178002020202020202020202020202020202047
:103188002020202020202020726561642020777272
:103198006974650D0A0A20202D2D2D2D2D2D2D2029
:1031A8004279746520436F6D6D616E6473202D2DB7
:1031B8002D2D2D2D2D2020202020202D20466C69FE
:1031C800702F466C6F70202D20202020202D2D2D53
:1031D80020436C6F636B2050756C736573202D2DC5
:1031E8002D0D0A0020202050412E20202E5059203D
:1031F800202050552E20202E5055202050562E206D
:103208002E505620202020202E536D20202E526D27
:10321800202020516D2E2020202020636C6B612EF1
:10322800202020636C6B622E2020636C6B632E0D54
:103238000A002020205050412020504253202020B6
:1032480050505520205050562020505059202020B2
:103258002020202020202020202020202020202066
:10326800202020202020202020323030206D732084
:1032780020363030206D7320312E3820730D0A002F
:10328800202047726F756E6420443820746F206563
:103298006E61626C65204175746F7374617274201D
:1032A8002020202020202020202020202020202016
:1032B800202054696D6572733A2054302E2E543391
:1032C8002028313030206D736563290D0A002020D5
:1032D80047726F756E6420443920746F20696E766A
:1032E800657274206F7574707574732020202020A7
:1032F80020202020202020202020202020202020C6
:10330800202020202020202054342E2E54622028D3
:10331800736563290D0A2020446174653A203230B0
:1033280031392F31322F3039202020202020202001
:103338002020202020202020202020202020202085
:10334800202054632E2E546520286D696E292C2068
:1033580054662028362E3636206D696E290D0A1AD5
:103368002020203F001A2A2A2A2052756E6E696E84
:103378006720557365722046696C652050726F67C7
:1033880072616D202A2A2A1A2020537472696B658B
:1033980020616E79206B6579202D2D3E201A2A2A0E
:1033A8002A20557365722046696C652030202A2AC8
:1033B8002A001A00202020202008080808081A00DF
:1033C80020202A2A2A20556E7265636F676E697AF3
:1033D800656420496E70757421202A2A2A1A456E60
:1033E8007465723A201A2E2E2E2E2E1A2020205363
:1033F800746F72696E67205546302C20706C656159
:1034080073652077616974202E2E2E201A002A2ACF
:103418002A204C6F61642074696D6572732C205A80
:1034280020636C65617220616C6C2C203C43523EB9
:103438002065786974202A2A2A1A543020202020EE
:1034480020543120202020205432202020202054B5
:1034580033202020202054342020202020543520C0
:10346800202020205436202020202054371A543879
:1034780020202020205439202020202054412020A2
:103488002020205442202020202054432020202087
:10349800205444202020202054452020202020543F
:1034A800461A3D3D3D3D3D3D3D3D3D3D3D3D3D3D5E
:1034B8003D3D3D3D3D3D3D3D3D3D3D3D3D3D3D3D34
:1034C8003D3D3D3D3D3D3D3D3D3D3D3D3D3D3D3D24
:0834D8003D3D3D3D3D3D1A0064
:00000001FF
